{
  "_format": "hh-sol-artifact-1",
  "contractName": "PPToken",
  "sourceName": "contracts/PPToken.sol",
  "abi": [
    {
      "inputs": [
        {
          "internalType": "string",
          "name": "name",
          "type": "string"
        },
        {
          "internalType": "string",
          "name": "symbol",
          "type": "string"
        },
        {
          "internalType": "uint256",
          "name": "_totalSupply",
          "type": "uint256"
        }
      ],
      "stateMutability": "nonpayable",
      "type": "constructor"
    },
    {
      "anonymous": false,
      "inputs": [
        {
          "indexed": true,
          "internalType": "address",
          "name": "owner",
          "type": "address"
        },
        {
          "indexed": true,
          "internalType": "address",
          "name": "spender",
          "type": "address"
        },
        {
          "indexed": false,
          "internalType": "uint256",
          "name": "value",
          "type": "uint256"
        }
      ],
      "name": "Approval",
      "type": "event"
    },
    {
      "anonymous": false,
      "inputs": [
        {
          "indexed": true,
          "internalType": "address",
          "name": "from",
          "type": "address"
        },
        {
          "indexed": true,
          "internalType": "address",
          "name": "to",
          "type": "address"
        },
        {
          "indexed": false,
          "internalType": "uint256",
          "name": "value",
          "type": "uint256"
        }
      ],
      "name": "Transfer",
      "type": "event"
    },
    {
      "inputs": [
        {
          "internalType": "address",
          "name": "owner",
          "type": "address"
        },
        {
          "internalType": "address",
          "name": "spender",
          "type": "address"
        }
      ],
      "name": "allowance",
      "outputs": [
        {
          "internalType": "uint256",
          "name": "",
          "type": "uint256"
        }
      ],
      "stateMutability": "view",
      "type": "function"
    },
    {
      "inputs": [
        {
          "internalType": "address",
          "name": "spender",
          "type": "address"
        },
        {
          "internalType": "uint256",
          "name": "amount",
          "type": "uint256"
        }
      ],
      "name": "approve",
      "outputs": [
        {
          "internalType": "bool",
          "name": "",
          "type": "bool"
        }
      ],
      "stateMutability": "nonpayable",
      "type": "function"
    },
    {
      "inputs": [
        {
          "internalType": "address",
          "name": "account",
          "type": "address"
        }
      ],
      "name": "balanceOf",
      "outputs": [
        {
          "internalType": "uint256",
          "name": "",
          "type": "uint256"
        }
      ],
      "stateMutability": "view",
      "type": "function"
    },
    {
      "inputs": [],
      "name": "decimals",
      "outputs": [
        {
          "internalType": "uint8",
          "name": "",
          "type": "uint8"
        }
      ],
      "stateMutability": "view",
      "type": "function"
    },
    {
      "inputs": [
        {
          "internalType": "address",
          "name": "spender",
          "type": "address"
        },
        {
          "internalType": "uint256",
          "name": "subtractedValue",
          "type": "uint256"
        }
      ],
      "name": "decreaseAllowance",
      "outputs": [
        {
          "internalType": "bool",
          "name": "",
          "type": "bool"
        }
      ],
      "stateMutability": "nonpayable",
      "type": "function"
    },
    {
      "inputs": [
        {
          "internalType": "address",
          "name": "spender",
          "type": "address"
        },
        {
          "internalType": "uint256",
          "name": "addedValue",
          "type": "uint256"
        }
      ],
      "name": "increaseAllowance",
      "outputs": [
        {
          "internalType": "bool",
          "name": "",
          "type": "bool"
        }
      ],
      "stateMutability": "nonpayable",
      "type": "function"
    },
    {
      "inputs": [
        {
          "internalType": "address",
          "name": "account",
          "type": "address"
        },
        {
          "internalType": "uint256",
          "name": "amount",
          "type": "uint256"
        }
      ],
      "name": "mintPPT",
      "outputs": [],
      "stateMutability": "nonpayable",
      "type": "function"
    },
    {
      "inputs": [],
      "name": "name",
      "outputs": [
        {
          "internalType": "string",
          "name": "",
          "type": "string"
        }
      ],
      "stateMutability": "view",
      "type": "function"
    },
    {
      "inputs": [],
      "name": "symbol",
      "outputs": [
        {
          "internalType": "string",
          "name": "",
          "type": "string"
        }
      ],
      "stateMutability": "view",
      "type": "function"
    },
    {
      "inputs": [],
      "name": "totalSupply",
      "outputs": [
        {
          "internalType": "uint256",
          "name": "",
          "type": "uint256"
        }
      ],
      "stateMutability": "view",
      "type": "function"
    },
    {
      "inputs": [
        {
          "internalType": "address",
          "name": "recipient",
          "type": "address"
        },
        {
          "internalType": "uint256",
          "name": "amount",
          "type": "uint256"
        }
      ],
      "name": "transfer",
      "outputs": [
        {
          "internalType": "bool",
          "name": "",
          "type": "bool"
        }
      ],
      "stateMutability": "nonpayable",
      "type": "function"
    },
    {
      "inputs": [
        {
          "internalType": "address",
          "name": "sender",
          "type": "address"
        },
        {
          "internalType": "address",
          "name": "recipient",
          "type": "address"
        },
        {
          "internalType": "uint256",
          "name": "amount",
          "type": "uint256"
        }
      ],
      "name": "transferFrom",
      "outputs": [
        {
          "internalType": "bool",
          "name": "",
          "type": "bool"
        }
      ],
      "stateMutability": "nonpayable",
      "type": "function"
    }
  ],
  "bytecode": "0x60806040523480156200001157600080fd5b5060405162001fd838038062001fd883398181016040528101906200003791906200045f565b828281600390805190602001906200005192919062000326565b5080600490805190602001906200006a92919062000326565b505050620000b96040518060400160405280600e81526020017f63616c6c6572206164647265737300000000000000000000000000000000000081525033620000d460201b620007c11760201c565b620000cb33826200017a60201b60201c565b5050506200087d565b620001768282604051602401620000ed92919062000571565b6040516020818303038152906040527f319af333000000000000000000000000000000000000000000000000000000007bffffffffffffffffffffffffffffffffffffffffffffffffffffffff19166020820180517bffffffffffffffffffffffffffffffffffffffffffffffffffffffff8381831617835250505050620002f360201b60201c565b5050565b600073ffffffffffffffffffffffffffffffffffffffff168273ffffffffffffffffffffffffffffffffffffffff161415620001ed576040517f08c379a0000000000000000000000000000000000000000000000000000000008152600401620001e490620005a5565b60405180910390fd5b62000201600083836200031c60201b60201c565b80600260008282546200021591906200065f565b92505081905550806000808473ffffffffffffffffffffffffffffffffffffffff1673ffffffffffffffffffffffffffffffffffffffff16815260200190815260200160002060008282546200026c91906200065f565b925050819055508173ffffffffffffffffffffffffffffffffffffffff16600073ffffffffffffffffffffffffffffffffffffffff167fddf252ad1be2c89b69c2b068fc378daa952ba7f163c4a11628f55a4df523b3ef83604051620002d39190620005c7565b60405180910390a3620002ef600083836200032160201b60201c565b5050565b60008151905060006a636f6e736f6c652e6c6f679050602083016000808483855afa5050505050565b505050565b505050565b828054620003349062000730565b90600052602060002090601f016020900481019282620003585760008555620003a4565b82601f106200037357805160ff1916838001178555620003a4565b82800160010185558215620003a4579182015b82811115620003a357825182559160200191906001019062000386565b5b509050620003b39190620003b7565b5090565b5b80821115620003d2576000816000905550600101620003b8565b5090565b6000620003ed620003e7846200060d565b620005e4565b9050828152602081018484840111156200040657600080fd5b62000413848285620006fa565b509392505050565b600082601f8301126200042d57600080fd5b81516200043f848260208601620003d6565b91505092915050565b600081519050620004598162000863565b92915050565b6000806000606084860312156200047557600080fd5b600084015167ffffffffffffffff8111156200049057600080fd5b6200049e868287016200041b565b935050602084015167ffffffffffffffff811115620004bc57600080fd5b620004ca868287016200041b565b9250506040620004dd8682870162000448565b9150509250925092565b620004f281620006bc565b82525050565b6000620005058262000643565b6200051181856200064e565b935062000523818560208601620006fa565b6200052e8162000829565b840191505092915050565b600062000548601f836200064e565b915062000555826200083a565b602082019050919050565b6200056b81620006f0565b82525050565b600060408201905081810360008301526200058d8185620004f8565b90506200059e6020830184620004e7565b9392505050565b60006020820190508181036000830152620005c08162000539565b9050919050565b6000602082019050620005de600083018462000560565b92915050565b6000620005f062000603565b9050620005fe828262000766565b919050565b6000604051905090565b600067ffffffffffffffff8211156200062b576200062a620007fa565b5b620006368262000829565b9050602081019050919050565b600081519050919050565b600082825260208201905092915050565b60006200066c82620006f0565b91506200067983620006f0565b9250827fffffffffffffffffffffffffffffffffffffffffffffffffffffffffffffffff03821115620006b157620006b06200079c565b5b828201905092915050565b6000620006c982620006d0565b9050919050565b600073ffffffffffffffffffffffffffffffffffffffff82169050919050565b6000819050919050565b60005b838110156200071a578082015181840152602081019050620006fd565b838111156200072a576000848401525b50505050565b600060028204905060018216806200074957607f821691505b6020821081141562000760576200075f620007cb565b5b50919050565b620007718262000829565b810181811067ffffffffffffffff82111715620007935762000792620007fa565b5b80604052505050565b7f4e487b7100000000000000000000000000000000000000000000000000000000600052601160045260246000fd5b7f4e487b7100000000000000000000000000000000000000000000000000000000600052602260045260246000fd5b7f4e487b7100000000000000000000000000000000000000000000000000000000600052604160045260246000fd5b6000601f19601f8301169050919050565b7f45524332303a206d696e7420746f20746865207a65726f206164647265737300600082015250565b6200086e81620006f0565b81146200087a57600080fd5b50565b61174b806200088d6000396000f3fe608060405234801561001057600080fd5b50600436106100b45760003560e01c80636953d387116100715780636953d387146101a357806370a08231146101bf57806395d89b41146101ef578063a457c2d71461020d578063a9059cbb1461023d578063dd62ed3e1461026d576100b4565b806306fdde03146100b9578063095ea7b3146100d757806318160ddd1461010757806323b872dd14610125578063313ce567146101555780633950935114610173575b600080fd5b6100c161029d565b6040516100ce9190611129565b60405180910390f35b6100f160048036038101906100ec9190610f22565b61032f565b6040516100fe919061110e565b60405180910390f35b61010f61034d565b60405161011c919061129b565b60405180910390f35b61013f600480360381019061013a9190610ed3565b610357565b60405161014c919061110e565b60405180910390f35b61015d61044f565b60405161016a91906112b6565b60405180910390f35b61018d60048036038101906101889190610f22565b610458565b60405161019a919061110e565b60405180910390f35b6101bd60048036038101906101b89190610f22565b610504565b005b6101d960048036038101906101d49190610e6e565b610557565b6040516101e6919061129b565b60405180910390f35b6101f761059f565b6040516102049190611129565b60405180910390f35b61022760048036038101906102229190610f22565b610631565b604051610234919061110e565b60405180910390f35b61025760048036038101906102529190610f22565b61071c565b604051610264919061110e565b60405180910390f35b61028760048036038101906102829190610e97565b61073a565b604051610294919061129b565b60405180910390f35b6060600380546102ac906113cb565b80601f01602080910402602001604051908101604052809291908181526020018280546102d8906113cb565b80156103255780601f106102fa57610100808354040283529160200191610325565b820191906000526020600020905b81548152906001019060200180831161030857829003601f168201915b5050505050905090565b600061034361033c61085d565b8484610865565b6001905092915050565b6000600254905090565b6000610364848484610a30565b6000600160008673ffffffffffffffffffffffffffffffffffffffff1673ffffffffffffffffffffffffffffffffffffffff16815260200190815260200160002060006103af61085d565b73ffffffffffffffffffffffffffffffffffffffff1673ffffffffffffffffffffffffffffffffffffffff1681526020019081526020016000205490508281101561042f576040517f08c379a0000000000000000000000000000000000000000000000000000000008152600401610426906111db565b60405180910390fd5b6104438561043b61085d565b858403610865565b60019150509392505050565b60006012905090565b60006104fa61046561085d565b84846001600061047361085d565b73ffffffffffffffffffffffffffffffffffffffff1673ffffffffffffffffffffffffffffffffffffffff16815260200190815260200160002060008873ffffffffffffffffffffffffffffffffffffffff1673ffffffffffffffffffffffffffffffffffffffff168152602001908152602001600020546104f591906112ed565b610865565b6001905092915050565b611388811015610549576040517f08c379a00000000000000000000000000000000000000000000000000000000081526004016105409061123b565b60405180910390fd5b6105538282610cb1565b5050565b60008060008373ffffffffffffffffffffffffffffffffffffffff1673ffffffffffffffffffffffffffffffffffffffff168152602001908152602001600020549050919050565b6060600480546105ae906113cb565b80601f01602080910402602001604051908101604052809291908181526020018280546105da906113cb565b80156106275780601f106105fc57610100808354040283529160200191610627565b820191906000526020600020905b81548152906001019060200180831161060a57829003601f168201915b5050505050905090565b6000806001600061064061085d565b73ffffffffffffffffffffffffffffffffffffffff1673ffffffffffffffffffffffffffffffffffffffff16815260200190815260200160002060008573ffffffffffffffffffffffffffffffffffffffff1673ffffffffffffffffffffffffffffffffffffffff168152602001908152602001600020549050828110156106fd576040517f08c379a00000000000000000000000000000000000000000000000000000000081526004016106f49061125b565b60405180910390fd5b61071161070861085d565b85858403610865565b600191505092915050565b600061073061072961085d565b8484610a30565b6001905092915050565b6000600160008473ffffffffffffffffffffffffffffffffffffffff1673ffffffffffffffffffffffffffffffffffffffff16815260200190815260200160002060008373ffffffffffffffffffffffffffffffffffffffff1673ffffffffffffffffffffffffffffffffffffffff16815260200190815260200160002054905092915050565b61085982826040516024016107d792919061114b565b6040516020818303038152906040527f319af333000000000000000000000000000000000000000000000000000000007bffffffffffffffffffffffffffffffffffffffffffffffffffffffff19166020820180517bffffffffffffffffffffffffffffffffffffffffffffffffffffffff8381831617835250505050610e11565b5050565b600033905090565b600073ffffffffffffffffffffffffffffffffffffffff168373ffffffffffffffffffffffffffffffffffffffff1614156108d5576040517f08c379a00000000000000000000000000000000000000000000000000000000081526004016108cc9061121b565b60405180910390fd5b600073ffffffffffffffffffffffffffffffffffffffff168273ffffffffffffffffffffffffffffffffffffffff161415610945576040517f08c379a000000000000000000000000000000000000000000000000000000000815260040161093c9061119b565b60405180910390fd5b80600160008573ffffffffffffffffffffffffffffffffffffffff1673ffffffffffffffffffffffffffffffffffffffff16815260200190815260200160002060008473ffffffffffffffffffffffffffffffffffffffff1673ffffffffffffffffffffffffffffffffffffffff168152602001908152602001600020819055508173ffffffffffffffffffffffffffffffffffffffff168373ffffffffffffffffffffffffffffffffffffffff167f8c5be1e5ebec7d5bd14f71427d1e84f3dd0314c0f7b2291e5b200ac8c7c3b92583604051610a23919061129b565b60405180910390a3505050565b600073ffffffffffffffffffffffffffffffffffffffff168373ffffffffffffffffffffffffffffffffffffffff161415610aa0576040517f08c379a0000000000000000000000000000000000000000000000000000000008152600401610a97906111fb565b60405180910390fd5b600073ffffffffffffffffffffffffffffffffffffffff168273ffffffffffffffffffffffffffffffffffffffff161415610b10576040517f08c379a0000000000000000000000000000000000000000000000000000000008152600401610b079061117b565b60405180910390fd5b610b1b838383610e3a565b60008060008573ffffffffffffffffffffffffffffffffffffffff1673ffffffffffffffffffffffffffffffffffffffff16815260200190815260200160002054905081811015610ba1576040517f08c379a0000000000000000000000000000000000000000000000000000000008152600401610b98906111bb565b60405180910390fd5b8181036000808673ffffffffffffffffffffffffffffffffffffffff1673ffffffffffffffffffffffffffffffffffffffff16815260200190815260200160002081905550816000808573ffffffffffffffffffffffffffffffffffffffff1673ffffffffffffffffffffffffffffffffffffffff1681526020019081526020016000206000828254610c3491906112ed565b925050819055508273ffffffffffffffffffffffffffffffffffffffff168473ffffffffffffffffffffffffffffffffffffffff167fddf252ad1be2c89b69c2b068fc378daa952ba7f163c4a11628f55a4df523b3ef84604051610c98919061129b565b60405180910390a3610cab848484610e3f565b50505050565b600073ffffffffffffffffffffffffffffffffffffffff168273ffffffffffffffffffffffffffffffffffffffff161415610d21576040517f08c379a0000000000000000000000000000000000000000000000000000000008152600401610d189061127b565b60405180910390fd5b610d2d60008383610e3a565b8060026000828254610d3f91906112ed565b92505081905550806000808473ffffffffffffffffffffffffffffffffffffffff1673ffffffffffffffffffffffffffffffffffffffff1681526020019081526020016000206000828254610d9491906112ed565b925050819055508173ffffffffffffffffffffffffffffffffffffffff16600073ffffffffffffffffffffffffffffffffffffffff167fddf252ad1be2c89b69c2b068fc378daa952ba7f163c4a11628f55a4df523b3ef83604051610df9919061129b565b60405180910390a3610e0d60008383610e3f565b5050565b60008151905060006a636f6e736f6c652e6c6f679050602083016000808483855afa5050505050565b505050565b505050565b600081359050610e53816116e7565b92915050565b600081359050610e68816116fe565b92915050565b600060208284031215610e8057600080fd5b6000610e8e84828501610e44565b91505092915050565b60008060408385031215610eaa57600080fd5b6000610eb885828601610e44565b9250506020610ec985828601610e44565b9150509250929050565b600080600060608486031215610ee857600080fd5b6000610ef686828701610e44565b9350506020610f0786828701610e44565b9250506040610f1886828701610e59565b9150509250925092565b60008060408385031215610f3557600080fd5b6000610f4385828601610e44565b9250506020610f5485828601610e59565b9150509250929050565b610f6781611343565b82525050565b610f7681611355565b82525050565b6000610f87826112d1565b610f9181856112dc565b9350610fa1818560208601611398565b610faa8161145b565b840191505092915050565b6000610fc26023836112dc565b9150610fcd8261146c565b604082019050919050565b6000610fe56022836112dc565b9150610ff0826114bb565b604082019050919050565b60006110086026836112dc565b91506110138261150a565b604082019050919050565b600061102b6028836112dc565b915061103682611559565b604082019050919050565b600061104e6025836112dc565b9150611059826115a8565b604082019050919050565b60006110716024836112dc565b915061107c826115f7565b604082019050919050565b60006110946020836112dc565b915061109f82611646565b602082019050919050565b60006110b76025836112dc565b91506110c28261166f565b604082019050919050565b60006110da601f836112dc565b91506110e5826116be565b602082019050919050565b6110f981611381565b82525050565b6111088161138b565b82525050565b60006020820190506111236000830184610f6d565b92915050565b600060208201905081810360008301526111438184610f7c565b905092915050565b600060408201905081810360008301526111658185610f7c565b90506111746020830184610f5e565b9392505050565b6000602082019050818103600083015261119481610fb5565b9050919050565b600060208201905081810360008301526111b481610fd8565b9050919050565b600060208201905081810360008301526111d481610ffb565b9050919050565b600060208201905081810360008301526111f48161101e565b9050919050565b6000602082019050818103600083015261121481611041565b9050919050565b6000602082019050818103600083015261123481611064565b9050919050565b6000602082019050818103600083015261125481611087565b9050919050565b60006020820190508181036000830152611274816110aa565b9050919050565b60006020820190508181036000830152611294816110cd565b9050919050565b60006020820190506112b060008301846110f0565b92915050565b60006020820190506112cb60008301846110ff565b92915050565b600081519050919050565b600082825260208201905092915050565b60006112f882611381565b915061130383611381565b9250827fffffffffffffffffffffffffffffffffffffffffffffffffffffffffffffffff03821115611338576113376113fd565b5b828201905092915050565b600061134e82611361565b9050919050565b60008115159050919050565b600073ffffffffffffffffffffffffffffffffffffffff82169050919050565b6000819050919050565b600060ff82169050919050565b60005b838110156113b657808201518184015260208101905061139b565b838111156113c5576000848401525b50505050565b600060028204905060018216806113e357607f821691505b602082108114156113f7576113f661142c565b5b50919050565b7f4e487b7100000000000000000000000000000000000000000000000000000000600052601160045260246000fd5b7f4e487b7100000000000000000000000000000000000000000000000000000000600052602260045260246000fd5b6000601f19601f8301169050919050565b7f45524332303a207472616e7366657220746f20746865207a65726f206164647260008201527f6573730000000000000000000000000000000000000000000000000000000000602082015250565b7f45524332303a20617070726f766520746f20746865207a65726f20616464726560008201527f7373000000000000000000000000000000000000000000000000000000000000602082015250565b7f45524332303a207472616e7366657220616d6f756e742065786365656473206260008201527f616c616e63650000000000000000000000000000000000000000000000000000602082015250565b7f45524332303a207472616e7366657220616d6f756e742065786365656473206160008201527f6c6c6f77616e6365000000000000000000000000000000000000000000000000602082015250565b7f45524332303a207472616e736665722066726f6d20746865207a65726f20616460008201527f6472657373000000000000000000000000000000000000000000000000000000602082015250565b7f45524332303a20617070726f76652066726f6d20746865207a65726f2061646460008201527f7265737300000000000000000000000000000000000000000000000000000000602082015250565b7f63616e27742065786368616e6765206d6f7265207468616e2035303030455448600082015250565b7f45524332303a2064656372656173656420616c6c6f77616e63652062656c6f7760008201527f207a65726f000000000000000000000000000000000000000000000000000000602082015250565b7f45524332303a206d696e7420746f20746865207a65726f206164647265737300600082015250565b6116f081611343565b81146116fb57600080fd5b50565b61170781611381565b811461171257600080fd5b5056fea2646970667358221220fd73a571d11714f9e79c950f24bbd05a3e3fa5c346954711394673725794114f64736f6c63430008030033",
  "linkReferences": {},
  "deployedLinkReferences": {}
}